:020000040800F2
:10000000C00900202D0C00080107000803070008A4
:10001000070700080B0700080F0700080000000092
:1000200000000000000000000000000013070008AE
:10003000150700080000000017070008190700084E
:10004000470C0008470C0008470C00083131000835
:10005000470C0008470C0008470C0008470C000834
:10006000470C0008470C0008470C0008470C000824
:10007000470C0008470C0008470C0008470C000814
:10008000470C0008470C0008470C0008470C000804
:10009000470C0008470C0008470C0008470C0008F4
:1000A000470C0008470C0008470C0008470C0008E4
:1000B000470C0008470C00089F3C0008470C00084C
:1000C000470C0008470C0008470C0008470C0008C4
:1000D000470C0008812B0008FB2B0008470C000888
:1000E000470C0008470C0008470C0008470C0008A4
:1000F000470C0008470C0008470C0008470C000894
:10010000470C0008470C0008470C0008470C000883
:10011000470C0008470C0008470C0008470C000873
:10012000470C0008470C0008470C0008470C000863
:1001300000F002F800F076F80AA090E8000C824483
:100140008344AAF10107DA4501D100F06BF8AFF260
:10015000090EBAE80F0013F0010F18BFFB1A43F0A5
:1001600001031847F46C0000146D00000A444FF0BE
:10017000000C10F8013B13F0070408BF10F8014B06
:100180001D1108BF10F8015B641E05D010F8016B4B
:10019000641E01F8016BF9D113F0080F1EBF10F8AF
:1001A000014BAD1C0C1B09D16D1E58BF01F801CBD2
:1001B000FAD505E014F8016B01F8016B6D1EF9D555
:1001C0009142D6D37047000000230024002500266A
:1001D000103A28BF78C1FBD8520728BF30C148BFAA
:1001E0000B607047662906F0CB84642905F08A808D
:1001F000752905F08780782905F0C080632905F00E
:100200000D84732905F01284002070471FB505F096
:1002100023FC04000020002106F07AF9E0601FBDF5
:1002200010B510BD05F030FD1146FFF7EFFF00F0EF
:100230001AF905F04EFD03B4FFF7F2FF03BC02F01C
:10024000F1FB000008B50121042001F061F94FF431
:100250008050ADF8000010208DF8030003208DF8C9
:1002600002006946CF4800F031FE4FF48051CD487E
:1002700000F0D9FE0121082001F04AF940F23B309C
:10028000ADF8000010208DF8030003208DF8020067
:100290006946C54800F01AFE0121C34800F0C3FEBC
:1002A0000221C14800F0BFFE0821BF4800F0BBFE9C
:1002B0001021BD4800F0B7FE2021BB4800F0B3FE7E
:1002C0004FF48071B84800F0AEFE4FF40071B648AC
:1002D00000F0A9FE0121102001F01AF94FF480501E
:1002E000ADF8000010208DF8030003208DF8020007
:1002F0006946AE4800F0EAFD4FF48051AB4800F08B
:1003000092FE0121202001F003F90420ADF8000045
:1003100010208DF8030003208DF802006946A348E1
:1003200000F0D4FD0421A24800F07DFE08BD10B508
:100330004FF480519B4800F078FEC82002F03FFB4C
:100340004FF48051974800F06EFEC82002F037FB52
:100350004FF48051934800F068FEC82002F02FFB54
:100360004FF480518F4800F05EFEC82002F027FB5A
:1003700010BD10B502F07DFE50B18EA004F066FFF6
:100380004FF4487002F01BFB8EA004F05FFF04E006
:1003900002F06FFE08B9FFF7CAFF02F096FF30B116
:1003A0008CA004F053FFC82002F009FB04E002F027
:1003B0008CFF08B9FFF7BBFF03F0B7F830B189A095
:1003C00004F044FFC82002F0FAFA04E003F0ADF8AC
:1003D00008B9FFF7ACFF10BD30B589B005460C4633
:1003E0000121022001F0A1F80121082001F090F87C
:1003F0000120ADF8200018208DF8230003208DF88F
:10040000220008A9684800F061FDADF81850ADF869
:1004100014400020ADF81A00ADF8160005A9764882
:1004200001F052FA7020ADF804000120ADF806008A
:100430000020ADF80A00ADF80C0001A96E4801F0EB
:100440000FFB01216C4801F0A7FD08216A4801F06B
:10045000DDFE0121684801F093FE0121664801F0AC
:100460008FFD09B030BD86B002F0D6FAFFF7EAFE84
:1004700000F044FA02F066FA4FF4165002F0E1FA86
:100480004FF4165002F02CFB5C4841684820884726
:10049000FFF76FFF04A905A802F0EBFE642002F04D
:1004A0008EFA9DF8141056A004F0D0FE9DF810109E
:1004B00058A004F0CBFE02A903A800F091FBE0B124
:1004C000BDF8080006F0C1F907460022554B06F0BA
:1004D00035F805460E46BDF80C0006F0B6F907469D
:1004E0000022504B06F02AF881464A460B464EA0A1
:1004F000CDE9005604F0AAFE02E052A004F0A6FEE8
:100500004FE03E490869804753488078A04245D073
:1005100051488478C3798279818850A004F096FE8E
:100520004D48007A072821D2DFE800F004080C10BB
:1005300014181C0050A004F089FE17E051A004F02C
:1005400085FE13E052A004F081FE0FE053A004F0FA
:100550007DFE0BE054A004F079FE07E055A004F006
:1005600075FE03E056A004F071FE00BF00BF3A48DC
:1005700083784278017855A004F068FE3648007808
:1005800015280BD134484078132807D13248807899
:100590001E2803D153A1594802F09DFB0A2002F006
:1005A0000EFAAEE700080140000C014000100140C7
:1005B00000140140525443204552524F5221200D05
:1005C0000A00000052544320547279696E672E2E3F
:1005D0002E0D0A004448543131204572726F722149
:1005E0000D0A000044533138423230204572726F98
:1005F00072210D0A0000000000040040CC00002021
:1006000074656D70657261747572653A25640D0A62
:100610000000000068756D69646974793A25640D9D
:100620000A00000000002440CEC2B6C8A3BA252E9E
:10063000316620CAAAB6C8A3BA252E316625250D73
:100640000A0000007265616420534937303231205E
:100650004552524F520D0A00500300202564207964
:10066000656172202564206D6F6E7468202564209A
:10067000646174650D0A000053756E6461790D0A3A
:10068000000000004D6F6E6461790D0A00000000EB
:10069000547565736461790D0A0000005765646ED6
:1006A00065736461790D0A005468757273646179C9
:1006B0000D0A00004672696461790D0A00000000AD
:1006C00053617475726461790D0A000025642068B5
:1006D0006F7572202564206D696E20256420736516
:1006E000630D0A0074696D6520636F7272656374CF
:1006F00020726571756573740D0A00000044004036
:10070000704700BFFEE700BFFEE700BFFEE700BF87
:10071000FEE7704770477047704700000CB5002037
:10072000019000906C48006840F480306A4908608D
:1007300000BF6948006800F4003000900198401C38
:100740000190009818B90198B0F5A06FF1D16248F6
:10075000006800F4003010B10120009001E000209A
:1007600000900098012843D15C48006840F01000D8
:100770005A4908600846006820F0030008600846EF
:10078000006840F0020008605348406852494860E1
:100790000846406848600846406840F48060486009
:1007A0000846406820F47C1048600846406840F4E1
:1007B000E81048600846006840F08070086000BF9C
:1007C0004548006800F000700028F9D042484068B1
:1007D00020F00300404948600846406840F00200AD
:1007E000486000BF3C48406800F00C000828F9D180
:1007F0000CBD10B5FFF792FF10BD10B5364800686C
:1008000040F0010034490860084640683449084017
:100810003149486008460068324908402E4908605E
:100820000846006820F4802008600846406820F4EC
:10083000FE0048604FF41F008860FFF7DAFF4FF0BA
:1008400000602949086010BD10B500210020002279
:10085000214B5B6803F00C0121B1042906D0082963
:1008600028D107E0214B224C236027E01F4B204C6E
:10087000236023E0184B5B6803F47010164B5B6831
:1008800003F48032022303EB904022B9194B434317
:10089000174C23600DE0104B5B6803F4003323B169
:1008A000144B4343124C236003E0104B4343104C62
:1008B000236003E00D4B0E4C236000BF00BF064BCE
:1008C0005B68C3F303130C4CE15C094B1B68CB4022
:1008D000074C236010BD00000010024000200240C1
:1008E0000000FFF8FFFFF6FE08ED00E000127A00BE
:1008F0000000002000093D000400002008B5012090
:10090000ADF8000014208DF8030001208DF80200DE
:100910006946984800F0DAFA0220ADF80000142089
:100920008DF8030001208DF802006946914800F01F
:10093000CDFA08BD10B58F48006820F0F0008D4951
:1009400008600846006840F03000086002208949CD
:100950001031086001200860082002F00CF8022025
:10096000844914310860082002F005F8012081490B
:100970001431086010BD10B57E48006820F0F0000A
:100980007C4908600846006840F03000086001209B
:1009900078491431086002200860082001F0EBFF5C
:1009A000012074491031086002200860082001F01D
:1009B000E2FF10BD10B500246E48006820F0F00082
:1009C0006C4908600846006840F08000086002201A
:1009D000684910310860012001F0CDFF0120654910
:1009E0001031086001F0C7FF07E0601CC4B2FA2CA8
:1009F00003DDFFF7C0FF012010BD5E48083000682E
:100A000000F002000028F0D101205A49143108609A
:100A10000020F1E710B5012056491431086055480F
:100A2000006820F0F000534908600846006840F074
:100A30003000086002204F4914310860062001F0A0
:100A40009AFF01204B4910310860062001F093FF06
:100A5000012048491431086010BD10B501204549F6
:100A6000143108604348006820F0F00041490860F4
:100A70000846006840F03000086002203D4910310F
:100A80000860062001F077FF01203A491031086024
:100A9000062001F070FF012036491431086010BDB6
:100AA00070B504463348006820F0F0003149086012
:100AB0000846006840F03000086001202D491431DC
:100AC000086000251FE0E00920B10220294910310B
:100AD000086003E002202749143108606006040E14
:100AE000022001F048FF0120224910310860022055
:100AF00001F041FF01201F4914310860022001F07C
:100B00003AFF681CC5B2082DDDDB70BD70B5054627
:100B100000241848006820F0F000164908600846D4
:100B2000006840F080000860002619E001201149AB
:100B300014310860022001F01EFF01200D49103120
:100B400008606006040E0B480830006800F00200E0
:100B500008B1601CC4B2012001F00DFF701CC6B2C8
:100B6000082EE3DB15B9FFF778FF01E0FFF752FF2E
:100B7000204670BD000C014038B505460C46FFF715
:100B8000D9FE8020FFF78CFFFFF714FF012801D169
:100B9000002038BD2846FFF783FFFFF70BFF142026
:100BA00001F00DFFFFF7C6FE8120FFF779FFFFF789
:100BB00001FF0120FFF7AAFF8DF800000020FFF7DA
:100BC000A5FF8DF80100FFF7D6FE9DF801109DF8F6
:100BD000000001EB002020F0030020800120D8E776
:100BE00038B504460D466946F320FFF7C5FF08B93E
:100BF000002038BDBDF8000040F2DD61484340F2FE
:100C0000D511C1EB204020806946F520FFF7B4FFE5
:100C100008B90020EDE7BDF8000040F2712148431B
:100C20003C21C1EBE03028800120E2E70948804701
:100C300009480047FEE7FEE7FEE7FEE7FEE7FEE7BE
:100C4000FEE7FEE7FEE7FEE704480549054A064BD6
:100C500070470000FB07000831010008C0030020B6
:100C6000C0090020C0050020C00500203149014313
:100C7000314A1160704770B5002100230F22C478FB
:100C800004B32D4C246804F4E064C4F5E064210A44
:100C9000C1F10403CA40447804FA03F18478144093
:100CA00021430901254C0678A155047804F01F055D
:100CB0000124AC4005786D11AD0005F1E025C5F8C3
:100CC000004109E0047804F01F050124AC401C4DEC
:100CD0000678761145F8264070BD1A4A0A4002434C
:100CE000154B1B1F1A60704739B1134A121D126849
:100CF0000243114B1B1D1A6006E00F4A121D1268B9
:100D000082430D4B1B1D1A607047042808D14FF019
:100D1000E021096941F004014FF0E022116107E090
:100D20004FF0E021096921F004014FF0E022116148
:100D3000704700000000FA050CED00E000E400E060
:100D400080E100E080FFFF1F10B5012000F014FCDF
:100D5000002000F011FC10BD2A49086070472949A5
:100D6000091F0860704727498431086070470146B1
:100D70000020254A10884FF67F4210400843224A3F
:100D800010807047014600201F4A10884FF680727D
:100D9000104008431C4A1080704708B5002200929A
:100DA000194A2C3A0092009A02440092009A11606B
:100DB00008BD08B501460020009013482C3800906B
:100DC0000098084400900098008808BD0D489C30A9
:100DD0000068C0B270470C480830008840F001003D
:100DE00009490831088070470648A0300068C0B241
:100DF000704705480830008840F002000249083179
:100E00000880704704860D422C6C004010B50446E3
:100E1000CC48844208D10121042000F093FB00213A
:100E2000042000F08FFB46E0C748844208D101212E
:100E3000082000F087FB0021082000F083FB3AE047
:100E4000C248844208D10121102000F07BFB002120
:100E5000102000F077FB2EE0BD48844208D101212C
:100E6000202000F06FFB0021202000F06BFB22E02F
:100E7000B848844208D10121402000F063FB0021E2
:100E8000402000F05FFB16E0B348844208D1012106
:100E9000802000F057FB0021802000F053FB0AE087
:100EA000AE48844207D10121801500F04BFB0021A0
:100EB000A01500F047FB10BD10B50121084600F059
:100EC00041FB0021012000F03DFB10BD2DE9F04168
:100ED000024600250026002000230024002791F868
:100EE00003C00CF00F0591F803C00CF0100CBCF11E
:100EF000000F03D091F802C04CEA050591F800C03C
:100F0000BCF1000F31D0146800202BE04FF0010C31
:100F10000CFA00F3B1F800C00CEA03069E4220D19F
:100F200083004FF00F0C0CFA03F7BC4305FA03FCE7
:100F30004CEA040491F803C0BCF1280F06D14FF02D
:100F4000010C0CFA00FCC2F814C00AE091F803C0CE
:100F5000BCF1480F05D14FF0010C0CFA00FCC2F8AF
:100F600010C0401C0828D1D31460B1F800C0BCF1F7
:100F7000FF0F34DD546800202EE000F1080C4FF024
:100F8000010808FA0CF3B1F800C00CEA03069E420F
:100F900021D183004FF00F0C0CFA03F7BC4305FA84
:100FA00003FC4CEA040491F803C0BCF1280F05D1FE
:100FB00000F1080C08FA0CF8C2F8148091F803C08C
:100FC000BCF1480F07D100F1080C4FF0010808FAF6
:100FD0000CF8C2F81080401C0828CED35460BDE83D
:100FE000F0814FF6FF710180022181700421C170F0
:100FF00070470246002093680B400BB1012000E0CF
:10100000002070470146886880B270470246002081
:10101000D3680B400BB1012000E00020704701466F
:10102000C86880B2704701617047416170470AB17A
:10103000016100E041617047C16070474FF4803248
:101040000A438261816182618269826970470246D6
:101050000020434B18684FF68073184040EA021096
:1010600008433F4B186070473E49C8617047F0B570
:101070000A46002300240021002500F00046B6F1B6
:10108000004F02D1364EF16901E0354E7168C0F370
:10109000034583B200F44016B6F5401F08D121F095
:1010A00070612F4E766826F070662D4F7E6012E0DC
:1010B00000F48016B6F5801F06D1032606FA05F463
:1010C000A14341F0706106E0460D360103FA06F6D1
:1010D000B14341F0706122B1460D360103FA06F6C4
:1010E000314300F00046B6F1004F02D11C4EF161D1
:1010F00001E01B4E7160F0BD30B500228B071C0F64
:101100000F2303FA04F2164B08338C1053F82430E3
:101110009343134C08348D1044F8253023468C102B
:1011200053F824308C07240F00FA04F423430C4CAA
:1011300008348D1044F8253030BD0A49DC31086090
:101140007047000000080140000C01400010014001
:101150000014014000180140001C01400020014023
:10116000000001400000204210B50121080700F0F6
:10117000F6F900214FF0805000F0F1F910BD2A4936
:101180000862704728490861704701460020274AD5
:10119000106820F0E0000843106070472249A03139
:1011A0000860704710B502460020204B186820F0F8
:1011B0000300104318601E4B1B6843F004031C4CD3
:1011C0002360012901D130BF00E020BF184B1B680C
:1011D00023F00403164C236010BD1448006840F04F
:1011E0000400124908600846006840F002000860E8
:1011F0000F48006840F004000D49086000BF00BFC0
:1012000030BF704701460020084A52680A400AB1C0
:10121000012000E0002070470449096841EA80018C
:10122000024A11607047000000000E42007000404A
:1012300010ED00E0DF48006840F00100DD49086083
:1012400008464068DC490840DA49486008460068BA
:10125000DA490840D74908600846006820F4802031
:1012600008600846406820F4FE0048604FF41F0004
:1012700088607047CF49096821F48031CD4A1160F8
:101280001146096821F480211160B0F5803F03D038
:10129000B0F5802F0ED106E0C649096841F48031CF
:1012A000C44A116007E0C349096841F4A021C14A5A
:1012B000116000E000BF00BF704710B5014600227A
:1012C000002300204A11012A02D1BA4C236806E00B
:1012D000022A02D1B74C236A01E0B64C636A01F0DE
:1012E0001F02012494401C400CB1012000E00020AA
:1012F00010BD38B5002000900024002500BF31202B
:10130000FFF7DBFF05460098401C00900098B0F501
:10131000A06F01D0002DF2D03120FFF7CEFF08B131
:10132000012400E00024204638BD01460020A14AE7
:10133000106820F0F80040EAC10010607047A04932
:1013400008607047024600209A4B586820F47C10D1
:1013500042EA01031843974B586070479849086662
:10136000704701460020934A506820F0030008436C
:10137000506070478F48406800F00C00704701468D
:1013800000208C4A506820F0F000084350607047FD
:1013900001460020874A506820F4E060084350600E
:1013A000704701460020834A506820F4605040EAAC
:1013B000C1005060704729B17E4A527A02437D4B8A
:1013C0005A7204E07B4A527A82437A4B5A727047CF
:1013D0007B49D8310860704701460020754A506843
:1013E00020F440400843506070470021714A203289
:1013F0001170704A82F82010012802D004280AD106
:1014000004E001216B4A2032117005E00521694A90
:101410002032117000E000BF00BF704769490860CA
:1014200070476449096A0143624A1162704765491D
:1014300044390860704730B50021002200240023A1
:101440005C4D6D6805F00C0121B1042905D0082917
:1014500023D105E05C4D056022E05B4D05601FE097
:10146000544D6D6805F47012524D6D6805F480346A
:10147000022505EB92421CB9544D554305600BE023
:101480004C4D6D6805F400351DB1504D5543056058
:1014900002E04D4D5543056002E04B4D056000BF35
:1014A00000BF444D6D6805F0F0010909484D6B5CC3
:1014B0000568DD4045603F4D6D6805F4E061090A4F
:1014C000434D6B5C4568DD4085603A4D6D6805F4C1
:1014D0006051C90A3E4D6B5C4568DD40C560354DC5
:1014E0006D6805F44041890B3A4D6B5CC568B5FBEE
:1014F000F3F5056130BD29B12E4A526902432D4BE7
:101500005A6104E02B4A526982432A4B5A61704760
:1015100029B1284A92690243264B9A6104E0254A80
:1015200092698243234B9A61704729B1214AD2695B
:101530000243204BDA6104E01E4AD26982431D4B0C
:10154000DA61704729B11B4AD2680243194BDA604D
:1015500004E0184AD2688243164BDA60704729B11A
:10156000144A12690243134B1A6104E0114A1269CA
:101570008243104B1A617047124940390860704726
:101580000F49C86470470B49C87170470948406AE1
:1015900040F0807007494862704701460020054AC4
:1015A00092680A400AB1012000E00020704701491A
:1015B00088727047001002400000FFF8FFFFF6FE3F
:1015C000000042428004424200127A0000093D00BD
:1015D000140000202400002029B1504A1288024340
:1015E0004E4B1A8004E04D4A128882434B4B1A80BE
:1015F00070474A48001D008840F010004749091D07
:10160000088070474548001D00884FF6EF7108407C
:101610004249091D08807047002140481C3001885C
:10162000001F008841EA0040704700B50246FFF7FE
:10163000E0FF100C394918310880091D0A80FFF7B6
:10164000E1FF00BD00B50246FFF7D3FFC2F3034040
:10165000324908310880091D0A80FFF7D3FF00BD19
:1016600000B50246FFF7C5FF100C2C492031088059
:10167000091D0A80FFF7C6FF00BD00202749103171
:1016800009880907080B2549143109880843704760
:1016900000BF2248001D008800F020000028F8D07C
:1016A00070471E48001D00884FF6F77108401B491F
:1016B000091D088000BF1948001D008800F00800BF
:1016C0000028F8D0704701460020144A121D1288E5
:1016D0000A400AB1012000E0002070470F49091DAF
:1016E000098881430D4A121D118070470146002070
:1016F0000A4A121D12880A40D0B2084A12880A40CB
:1017000012B108B1012000E0002070470349091D13
:1017100009888143014A121D11807047002800404A
:1017200010B50446FE48844208D10121C014FFF7D9
:1017300009FF0021E014FFF705FFC4E0B4F1804F7A
:1017400008D101210846FFF70AFF00210120FFF719
:1017500006FFB8E0F348844208D101210220FFF7D8
:10176000FEFE00210220FFF7FAFEACE0EE488442C4
:1017700008D101210420FFF7F2FE00210420FFF729
:10178000EEFEA0E0E948844208D101210820FFF7DD
:10179000E6FE00210820FFF7E2FE94E0E4488442E0
:1017A00008D101211020FFF7DAFE00211020FFF7F9
:1017B000D6FE88E0DF48844208D101212020FFF7CF
:1017C000CEFE00212020FFF7CAFE7CE0DA488442EA
:1017D00008D101214014FFF7B5FE00216014FFF786
:1017E000B1FE70E0D548844209D10121C804FFF759
:1017F000A9FE00214FF40020FFF7A4FE63E0D048CB
:10180000844209D101210805FFF79CFE00214FF415
:101810008010FFF797FE56E0CA48844209D10121A3
:101820004805FFF78FFE00214FF40010FFF78AFEF6
:1018300049E0C548844208D101214020FFF78FFECE
:1018400000214020FFF78BFE3DE0C048844208D1D4
:1018500001218020FFF783FE00218020FFF77FFE1B
:1018600031E0BB48844208D101218015FFF777FEA3
:101870000021A015FFF773FE25E0B648844209D188
:1018800001210804FFF75EFE00214FF48030FFF7CE
:1018900059FE18E0B048844209D101214804FFF7FD
:1018A00051FE00214FF40030FFF74CFE0BE0AB4837
:1018B000844208D101218804FFF744FE00214FF43F
:1018C0008020FFF73FFE10BD00220288944B984213
:1018D0000ED0994B98420BD0B0F1804F08D0914B6D
:1018E000984205D0904B984202D0904B984204D138
:1018F0004FF68F731A404B881A438D4B984207D08E
:101900008C4B984204D04FF6FF431A40CB881A43C1
:1019100002808B8883850B880385814B98420BD08E
:10192000854B984208D08B4B984205D08A4B984201
:1019300002D08A4B984201D10B7A0386012383821D
:10194000704770B5002400220023058C4FF6FE7608
:1019500035400584028C8388048B4FF68F752C40AC
:10196000B51E2C400D882C43751E2A400D892A4334
:101970004D882A436A4DA8420BD06F4DA84208D02B
:10198000744DA84205D0744DA84202D0734DA842B0
:1019900013D14FF6F7752A404D892A434FF6FB7550
:1019A0002A408D882A434FF6FF652B404FF6FF559E
:1019B0002B408D892B43CD892B4383800483CD8895
:1019C0008586028470BD70B5002400220023058C3A
:1019D0004FF6EF7635400584028C8388048B48F6F9
:1019E000FF752C404FF6FF452C400D884FF6FF76D3
:1019F00006EA05252C434FF6DF752A400D8906EAD5
:101A000005152A434D8806EA05152A43444DA84288
:101A100002D0494DA8421DD14FF67F752A404D890D
:101A20004FF6FF7606EA05152A434FF6BF752A40A2
:101A30008D8806EA05152A434FF6FF352B404FF2F5
:101A4000FF752B408D8906EA85052B43CD8906EA73
:101A500085052B4383800483CD880587028470BD70
:101A600070B5002400220023058C4FF6FF66354038
:101A70000584028C8388848B4FF68F752C404FF63B
:101A8000FC752C400D882C434FF6FF552A400D89DC
:101A90004FF6FF7606EA05252A434D8806EA052516
:101AA0002A431F4DA84202D0234DA8421DD14FF218
:101AB000FF752A404D894FF6FF7606EA05252A4331
:101AC0004FF6FF352A408D8806EA05252A434EF653
:101AD000FF752B404DF6FF752B408D8906EA0515E5
:101AE0002B43CD8906EA05152B4383808483CD885B
:101AF0008587028470BD70B5002200230024058C08
:101B00004EF6FF7635400584038C8488828B48F638
:101B1000FF752A404FF6FF452A400D8820E000005F
:101B2000002C01400004004000080040000C004070
:101B3000001000400014004000340140004C0140FF
:101B4000005001400054014000180040001C0040BB
:101B50000020004000400140004401400048014096
:101B60004FF6FF7606EA05252A434DF6FF752B4012
:101B70000D8906EA05352B434D8806EA05352B43CA
:101B8000FA4DA84202D0FA4DA84208D14BF6FF7593
:101B90002C408D894FF6FF7606EA85152C4384800C
:101BA0008283CD88A0F84050038470BD828B4FF2B1
:101BB000FF331A408283828B4FF6FF7303EA0123BF
:101BC0001A4382837047F0B50C4615460022002167
:101BD0000026078C4EF6FF7C07EA0C070784828BF1
:101BE000018C4FF6FF7707EA043640F6FF473A408C
:101BF0004FF6FF7707EA05273A434FF6FF7707EAE4
:101C000003373A43D94FB8420ED0D94FB8420BD020
:101C1000B0F1804F08D0D74FB84205D0D64FB84268
:101C200002D0D64FB84206D14DF6FF77394046F480
:101C30008057394305E047F6FF57394044F4805751
:101C4000394382830184F0BD828B4FF6F3731A40CF
:101C50008283828B0A4382837047F0B50C46154617
:101C6000002200210026078C4FF6FF6C07EA0C07C4
:101C70000784828B018C4FF6FF7707EA04264FF624
:101C80000C773A404FF6FF7707EA03172F433A43A2
:101C9000B64FB8420ED0B64FB8420BD0B0F1804F1D
:101CA00008D0B44FB84205D0B34FB84202D0B34FBA
:101CB000B84206D14FF6FF57394046F48077394392
:101CC00005E04FF2FF57394044F48077394382836F
:101CD0000184F0BD028B4FF2FF331A400283028B66
:101CE0004FF6FF7303EA01231A4302837047F0B5EE
:101CF0000C461546002200210026078C4FF6EF7C8B
:101D000007EA0C070784028B018C4FF6FF7707EA7E
:101D1000041640F6FF473A404FF6FF7707EA0337CD
:101D20003A434FF6FF7707EA05273A438F4FB84209
:101D30000ED08F4FB8420BD0B0F1804F08D08D4FEE
:101D4000B84205D08C4FB84202D08C4FB84206D171
:101D50004FF6DF77394046F01007394305E04FF67C
:101D60005F77394044F01007394302830184F0BDA6
:101D7000028B4FF6F3731A400283028B0A430283ED
:101D80007047F0B50C46154600220021068C4FF630
:101D9000FE773E400684028B018C4FF60C76324073
:101DA0007E1C06EA03162E433243704EB0420ED01C
:101DB0006F4EB0420BD0B0F1804F08D06D4EB042A4
:101DC00005D06D4EB04202D06C4EB04206D14FF6F7
:101DD000FD76314044F00106314305E04FF6F576DB
:101DE000314044F00106314302830184F0BD70B5F7
:101DF00005460C465D4885420ED05D4885420BD0B5
:101E0000B5F1804F08D05B48854205D05A488542DD
:101E100002D05A48854200D100E000BF208850B966
:101E20002389A28861882846FFF7ABFFE18828460E
:101E3000FFF79EFF25E0208804280AD12389A28885
:101E400061882846FFF753FFE1882846FFF742FFE5
:101E500017E0208808280AD12389A28861882846AB
:101E6000FFF7FBFEE1882846FFF7EEFE09E0238935
:101E7000A28861882846FFF7A6FEE1882846FFF77A
:101E800095FE70BD2DE9F04105460C460026012760
:101E9000608808B9022600E00026A088012801D148
:101EA000022700E001272088A0B92389A288618841
:101EB0002846FFF766FFE1882846FFF759FF238988
:101EC0003A4631462846FFF712FFE1882846FFF7D9
:101ED00001FF13E02389A28861882846FFF707FFE6
:101EE000E1882846FFF7F6FE23893A463146284620
:101EF000FFF747FFE1882846FFF73AFFBDE8F0818A
:101F00000A884B881A438B881A43CB881A430B895B
:101F10001A434B891A438B891A43A0F8442070470F
:101F20004FF6FF71818000210180C18041800172E4
:101F300070470021018041808180C1800181418101
:101F40008181C18170470021018041800121818010
:101F50000021C18001817047002101804180818082
:101F6000C18001814181818170470000002C0140C6
:101F7000003401400004004000080040000C004014
:101F800021B1028842F00102028004E002884FF68B
:101F9000FE731A400280704731B1B0F8442042F419
:101FA0000042A0F8442005E0B0F84420C2F30E023D
:101FB000A0F8442070471AB183890B43838102E063
:101FC00083898B43838170478182704741EA020392
:101FD000A0F8483070471AB183890B43838102E02F
:101FE00083898B438381704701894FF6F8721140D2
:101FF000018170470A46002101894FF68F7319400D
:1020000011430181704730B504460D4629462046EC
:10201000FFF7F0FF208940F00700208130BD2DE957
:10202000F04104460D4616461F46602D06D13B463C
:10203000012231462046FFF75AFE05E03B460122C9
:1020400031462046FFF79DFE29462046FFF7D2FF86
:10205000208940F007002081BDE8F08130B50C46B2
:1020600000210189C9B24FF6FF7505EA0325154322
:1020700025432943018130BD2DE9F04105460E4637
:1020800017469846002443463A4631462846FFF70D
:10209000E5FF2C894FF6F870044044F007044FF632
:1020A0008F70044044F070042C81BDE8F081F0B5DD
:1020B00004460D4616461F463B46324629462046F4
:1020C000FFF7CCFF208940F480402081F0BD0185DE
:1020D000828270470A46002101884FF68F731940AB
:1020E000114301807047F0B50C4615461E4600218D
:1020F000002200230189028B038C4FF6F8773940C8
:1021000021434FF6FC473A4040F201173A434FF65D
:10211000DD773B404FF6FF7707EA06172F433B4337
:10212000018102830384F0BD0A460021018B4FF632
:102130008F7319401143018370470A460021018BB8
:1021400048F6FF7319404FF6FF7303EA0223194361
:10215000018370470A460021818B4FF68F73194027
:102160001143818370470A460021818B48F6FF7333
:1021700019404FF6FF7303EA022319438183704726
:1021800021B1028842F08002028004E002884FF60A
:102190007F731A400280704721B1828842F00402A6
:1021A000828004E082884FF6FB731A408280704779
:1021B00021B1828842F00802828004E082884FF6D2
:1021C000F7731A408280704721B1828842F0010281
:1021D000828004E082884FF6FE731A408280704746
:1021E0000A460021018B4FF6F77319401143018312
:1021F00070470A460021018B4FF2FF7319404FF6DA
:10220000FF7303EA02231943018370470A46002142
:10221000818B4FF6F77319401143818370470A464B
:102220000021818B4FF2FF7319404FF6FF7303EAD1
:1022300002231943818370470A460021018B4FF620
:10224000FB7319401143018370470A460021018B3B
:102250004FF6FF3319404FF6FF7303EA0223194389
:10226000018370470A460021818B4FF6FB731940AA
:102270001143818370470A460021818B4FF6FF335B
:1022800019404FF6FF7303EA022319438183704715
:102290000A460021018B4FF67F73194011430183D9
:1022A00070470A460021018BC1F30E014FF6FF7300
:1022B00003EA02231943018370470A460021818BF8
:1022C0004FF67F7319401143818370470A460021FE
:1022D000818BC1F30E014FF6FF7303EA022319430A
:1022E000818370470A460021018C4FF6FD73194027
:1022F0001143018470470A460021018C4FF6F773A1
:1023000019401143018470470A460021018C4FF6A1
:10231000DF7319404FF6FF7303EA02131943018478
:1023200070470A460021018C4FF67F7319404FF623
:10233000FF7303EA02131943018470470A46002120
:10234000018C4FF6FF5319404FF6FF7303EA022347
:102350001943018470470A460021018C4FF2FF7334
:1023600019404FF6FF7303EA0223194301847047B3
:102370000A460021018C4DF6FF7319404FF6FF739A
:1023800003EA023319430184704730B50023012466
:102390008C40A3B2048C9C430484048C02FA01F5A3
:1023A000ADB22C43048430BD30B5002304248C40EE
:1023B000A3B2048C9C430484048C02FA01F5ADB2F0
:1023C0002C43048430BD70B5034600200024184619
:1023D000183001258D40ACB21D8CA5431D8409B178
:1023E000082909D100EB6100056825F0700505603A
:1023F0000568154305600EE00D1FC5F34E05284422
:10240000056825F4E045056005684FF6FF7606EAA5
:1024100002263543056070BD21B1028842F00202F8
:10242000028004E002884FF6FD731A400280704774
:1024300021B1028842F00402028004E002884FF6D3
:10244000FB731A400280704721B1828842F08002FB
:10245000828004E082884FF67F731A408280704742
:1024600002884FF6F7731A40028002880A430280FE
:10247000704782884FF68F731A40828082880A43A1
:102480008280704702894FF6F8731A4002810289F0
:102490000A430281704702894FF67F731A40028116
:1024A00002890A43028170478184704781857047A1
:1024B000818670470187704781877047A0F8401078
:1024C000704702884FF6FF431A40028002880A4391
:1024D000028070470146888E70470146088F70471A
:1024E0000146888F70470146B1F8400070470146A9
:1024F000888C70470146088D704702460020138A79
:102500000B400BB1012000E000207047CA4302825B
:10251000704730B50246002000230024158A05EAE2
:102520000103958905EA010413B10CB1012000E013
:10253000002030BDCA4302827047000010B5044637
:10254000FB48844209D101218803FEF7FBFF0021EB
:102550004FF48040FEF7F6FF32E0F648844209D19E
:1025600001214804FEF7FBFF00214FF40030FEF785
:10257000F6FF25E0F048844209D101218804FEF7E6
:10258000EEFF00214FF48020FEF7E9FF18E0EB4852
:10259000844209D10121C804FEF7E1FF00214FF474
:1025A0000020FEF7DCFF0BE0E548844208D1012162
:1025B0000805FEF7D4FF00214FF48010FEF7CFFF8F
:1025C00010BD2DE9F04786B005460E460024A24610
:1025D00000BFA1460027B08900B100BF2F462C8A5A
:1025E0004CF6FF700440F08804432C82AC894EF610
:1025F000F3100440B08831890843718908430443CB
:10260000AC81AC8A4FF6FF400440B0890443AC82F1
:1026100001A8FEF710FFC648874202D1DDF810A0DE
:1026200001E0DDF80CA0A88900F4004040B10AEBFD
:10263000CA0000EB0A1031684900B0FBF1F807E06E
:102640000AEBCA0000EB0A1031688900B0FBF1F810
:102650006420B8FBF0F004012009642101FB10891B
:10266000A88900F4004040B1322000EBC900B0FB63
:10267000F1F000F00700044308E0322000EB0910FD
:102680006421B0FBF1F000F00F0004432C8106B090
:10269000BDE8F0874FF41651016000218180C180B0
:1026A00001810C21418100218181704710B50246D2
:1026B0000020108A4FF2FF0318400B884C882343F8
:1026C0008C882343CC8823431843108210BD0021FB
:1026D000018041808180C180704721B1828942F4AC
:1026E0000052828104E082894DF6FF731A40828194
:1026F0007047F0B50346002400260025002040F670
:102700006A17B94200D100BF1846C1F3421401F064
:102710001F06012707FA06F5012C01D10C3004E051
:10272000022C01D1103000E014301AB107682F4399
:10273000076002E00768AF430760F0BD1AB1838A03
:102740000B43838202E0838A8B4383827047028A31
:102750004FF6F0731A400282028A0A4302827047DF
:1027600082894FF2FF731A40828182890A438281F3
:10277000704721B1828942F00202828104E082899D
:102780004FF6FD731A4082817047028A4FF6DF735D
:102790001A400282028A0A430282704721B1028AE9
:1027A00042F48042028204E0028A4BF6FF731A4030
:1027B00002827047C1F30802828070470146888810
:1027C000C0F308007047818941F0010181817047A1
:1027D000028BD2B20283028B42EA0122028370474B
:1027E000028B02F47F420283028B0A43028370470A
:1027F00021B1828A42F02002828204E0828A4FF66E
:10280000DF731A408282704721B1828A42F010023F
:10281000828204E0828A4FF6EF731A408282704708
:1028200021B1828A42F00802828204E0828A4FF655
:10283000F7731A408282704721B1828942F40042C4
:10284000828103E08289C2F30E028281704721B146
:10285000828A42F40062828204E0828A4FF2FF732D
:102860001A4082827047828A4FF6FB731A40828236
:10287000828A0A438282704721B1828A42F0020230
:10288000828204E0828A4FF6FD731A40828270478A
:1028900002460020B1F5007F00D100BF13880B4035
:1028A0000BB1012000E00020704701F40072B2F586
:1028B000007F00D100BFCA430280704770B5024656
:1028C000002400230025002040F66A16B14200D102
:1028D00000BFC1F3421501F01F03012606FA03F3FE
:1028E000012D02D19689334006E0022D02D1168ACD
:1028F000334001E0968A33400C12012606FA04F4B4
:102900001688344013B10CB1012000E0002070BDE6
:1029100010B50022002340F66A14A14200D100BF86
:102920000A1201249440A3B2DC43048010BD0000CD
:10293000003801400044004000480040004C004086
:102940000050004010B56FF00400FEF7DEF92E488D
:1029500000682E49B0FBF1F02D4908700846007858
:1029600000EB4001C1EBC0104FF6FF7101EAC0005F
:102970002849088010BD0146254A12784A434FF085
:10298000E0235A6100229A611A46126942F001025C
:102990001A6100BF4FF0E022106900F001021AB185
:1029A00000F48032002AF5D04FF0E022126922F0C4
:1029B00001024FF0E0231A6100229A61704701463C
:1029C000144A12884A434FF0E0235A6100229A6168
:1029D0001A46126942F001021A6100BF4FF0E0226C
:1029E000106900F001021AB100F48032002AF5D01B
:1029F0004FF0E022126922F001024FF0E0231A6149
:102A000000229A61704700000000002000127A0046
:102A1000280000202A00002010B54FF4A060FEF727
:102A200025F910BD014600BF704700BFEB4A128870
:102A300002F04002002AF9D0C2B2E84B1B1D1A80F6
:102A4000704710B586B00446012144F20400FEF739
:102A50005FFDE248FFF772FD4FF40070ADF814001F
:102A600003208DF8160018208DF8170005A9DC4802
:102A7000FEF72CFA4FF48060ADF8140004208DF8B6
:102A8000170005A9D648FEF721FA25208DF8000089
:102A900003208DF801008DF8020001208DF803005D
:102AA0006846FEF7E8F801940020ADF80800ADF89C
:102AB0000A00ADF80C00ADF810000C20ADF80E00C7
:102AC00001A9C648FFF77DFD012240F22551C34808
:102AD000FFF70FFE0121C148FFF7FFFD06B010BD53
:102AE00010B586B0044601214804FEF71EFD012101
:102AF0000420FEF70DFDBB48FFF720FD0420ADF8D4
:102B0000140003208DF8160018208DF8170005A971
:102B1000B348FEF7DBF90820ADF8140004208DF867
:102B2000170005A9AE48FEF7D1F926208DF8000060
:102B300003208DF801008DF8020001208DF80300BC
:102B40006846FEF798F801940020ADF80800ADF84B
:102B50000A00ADF80C00ADF810000C20ADF80E0026
:102B600001A9A048FFF72DFD012240F225519D4803
:102B7000FFF7BFFD01219B48FFF7AFFD06B010BD79
:102B800010B540F225519548FFF798FE10B39348D1
:102B9000FFF714FEC4B29448008800F40040C8B99E
:102BA0009148008800F4804060B10A2C03D00020D6
:102BB0008D49088020E08C48008840F400408A4914
:102BC000088019E00D2C06D18748008840F4804029
:102BD0008549088010E084480088C0F30D008349CF
:102BE0000C5481480088401C7F49088008460088B2
:102BF000C72801DD0020088010BD10B540F2255126
:102C00007848FFF75BFE10B37648FFF7D7FDC4B2F4
:102C10007748008800F40040C8B97548008800F47F
:102C2000804060B10A2C03D000207149088020E068
:102C30006F48008840F400406D49088019E00D2C71
:102C400006D16B48008840F480406949088010E054
:102C500067480088C0F30D0066490C54644800883A
:102C6000401C6349088008460088C72801DD002011
:102C7000088010BDF0B503460D46164600272946CC
:102C80000A2E03D0002008702846F0BD33B930204A
:102C900001F8010B002008702846F6E7002B03DA44
:102CA0002D2001F8010B5B4242F210720DE093FB04
:102CB000F2F404B937B104F1300001F8010B04FB60
:102CC000123301270A2092FBF0F2002AEFDC0020E9
:102CD00008702846D9E70FB470B586B006460CA830
:102CE000019073E00B9800785C281CD10B98401C75
:102CF0000B9000786E2809D072280FD10D21304634
:102D0000FFF758FD0B98401C0B900BE00A21304652
:102D1000FFF750FD0B98401C0B9003E00B98401CF4
:102D20000B9000BF4BE00B980078252840D10B9802
:102D3000401C0B900078642818D0732833D1019878
:102D400010C801900BE021783046FFF733FD00BF3B
:102D500040213046FFF79CFD0028F9D0641C207804
:102D60000028F0D10B98401C0B9020E0019820C85F
:102D700001900A2202A92846FFF77CFF02AC0BE073
:102D800021783046FFF716FD00BF40213046FFF79F
:102D90007FFD0028F9D0641C20780028F0D10B9822
:102DA000401C0B9003E00B98401C0B9000BF06E00A
:102DB0000B9810F8011B0B903046FFF7FBFC00BF8F
:102DC00040213046FFF764FD0028F9D00B980078C9
:102DD000002887D106B070BC5DF814FB00380140B4
:102DE000000801400044004030000020C0010020E5
:102DF000320000208802002008B503208DF8000072
:102E000000208DF801008DF8020001208DF80300EC
:102E10006846FDF730FF08BDF0B503460C46154681
:102E2000642093FBF0F0C6B2642093FBF0F700FB44
:102E30001730C1B2132E02DD01F16400C1B20846A1
:102E4000CF1701EB977701EBA707BAB2072092FBE8
:102E5000F0F700FB172082B25719601EDFF8F8C2A6
:102E60001CF80000384482B2CF1701EB9777BF10EF
:102E7000A1EB87071FB9032C01DA501E82B207208D
:102E800092FBF0F700FB1720C0B2F0BD0146CA1755
:102E900001EB92729210A1EB820292B9642091FB35
:102EA000F0F200FB121050B94FF4C87091FBF0F231
:102EB00000FB121008B9012070470020FCE7012038
:102EC000FAE70020F8E770B5002600240025FEF799
:102ED000A3FB0646A148B6FBF0F4A1480088A04237
:102EE0003CD09F490C8040F2B27510E02846FFF7B5
:102EF000CDFF40B1B4F5B77F02D3A4F5B77404E0B9
:102F0000681C85B206E0A4F26D14681C85B2B4F5A5
:102F1000B67FEBD800BF93488580002516E0914925
:102F20008888FFF7B3FF30B1012D04D11D2C01D3E8
:102F30001D3C09E00CE08C48405DA04203D88A4863
:102F4000405D241A00E003E0681C85B21C2CE6D228
:102F500000BF681C83498871601CC8717F48B6FB3C
:102F6000F0F100FB11644FF46160B4FBF0F07D49B7
:102F700008704FF46160B4FBF0F100FB11403C219C
:102F8000B0FBF1F0774948704FF46160B4FBF0F1A9
:102F900000FB11403C21B0FBF1F201FB1200714932
:102FA00088700B46DA7999799888FFF735FF6D4973
:102FB0000872002070BD2DE9F05F06460F4690466E
:102FC0009946DDE90AAB002440F2B270864203DB89
:102FD00040F63300864202DD0120BDE8F09F40F25A
:102FE000B2750AE02846FFF751FF10B15F4804446C
:102FF00001E05F480444681C85B2B542F2DB781EEC
:10300000C7B2002510E05848405D40F2A321484374
:1030100004EBC0143046FFF739FF18B1012D01D180
:103020004E480444681C85B2BD42ECDBA8F10100A7
:1030300040F2A321484304EBC014C9EB4910C0EB94
:10304000092004EB0014CAEB0A1004EB80045C4472
:1030500001214FF0C050FEF768FA0120FEF78FF80B
:103060002046FEF7E2FAFEF713FBFFF72CFF0020E5
:10307000B3E71CB500240420FDF79BFE45F2500188
:10308000884247D001214FF0C050FEF74EFA012090
:10309000FEF775F8FDF758FE0120FEF7A6F904E0EB
:1030A000601CC4B20A20FFF78AFC4120FEF705F934
:1030B0000028F5D0FA2C01DB01201CBD4FF48070F4
:1030C000FEF7AFF90120FEF7B2F9FEF7E1FAFEF7DD
:1030D000E8FA01210846FEF77FFAFEF7D9FAFEF773
:1030E00088FA47F6FF70FEF7ADFAFEF7D1FA0A202C
:1030F000392116231522CDE9001007214FF4FC6079
:10310000FFF759FFFEF77EFA45F250010420FDF764
:1031100044FE07E0FEF7C5FA01210846FEF75CFA17
:10312000FEF7B6FAFFF768FEFFF7CDFE0020C4E712
:1031300010B50120FEF7DAFA08B1FFF7C4FE02204D
:10314000FEF7D4FA10B10220FEF7E0FA0520FEF7F0
:10315000DDFAFEF79DFA10BD846B00088051010076
:103160003400002050030020906B00080085E2012D
:103170008033E10110B57548006820F07060734934
:1031800008600846006840F0407008600020704900
:1031900008601420FFF713FC01206E49C1F8980164
:1031A0001E20FFF7E8FB10BD10B50024674800683B
:1031B00020F07060654908600846006840F00060D3
:1031C000086004E0601CC4B20120FFF7D4FB604833
:1031D0008038006808B1642CF4DB642C01DB01202A
:1031E00010BD002404E0601CC4B20120FFF7C3FB43
:1031F00057488038006808B9642CF4DB642C01DB84
:103200000120EDE70020EBE710B5002404E0601C8E
:10321000C4B20120FFF7AFFB4D488038006808B109
:10322000642CF4DB002404E0601CC4B20120FFF72E
:10323000A2FB47488038006808B9642CF4DB2820DA
:10324000FFF799FB42488038006808B1012010BDA3
:103250000020FCE770B50024002506E06006040E9F
:10326000FFF7D2FF0443681CC5B2082DF6DB2046E9
:1032700070BD7CB505460E46FFF77CFFFFF794FF57
:10328000F8B9002405E0FFF7E5FF0DF80400601C25
:10329000C4B2052CF7DB9DF800009DF8011008442E
:1032A0009DF8021008449DF8031008449DF804108E
:1032B000884208D19DF8000030709DF80200287007
:1032C00001E001207CBD0020FCE708B501211020B1
:1032D000FEF71EF94FF47070ADF8000010208DF865
:1032E000030003208DF8020069461848FDF7EEFD43
:1032F000FFF740FFFFF758FF08BD7CB50446FFF716
:10330000E4FF05462DB114A11F48FFF7E4FCFF20A0
:103310007CBD694601A8FFF7ACFF012C08D19DF8E0
:1033200004201AA11848FFF7D6FC9DF80400EFE727
:10333000022C08D19DF8002014A11348FFF7CBFC04
:103340009DF80000E4E700BFE2E700000010014044
:1033500098012242000022424448543131206E6FCD
:103360007420666F756E6420706C65617365206390
:103370006865636B20746865206861726477617248
:1033800065210D0A000000000044004025640D0A7C
:103390000000000010B59448006820F00F0092492A
:1033A00008600846006840F00300086000208F496C
:1033B000086040F2EE20FFF7DEFA01208C49C1F8E8
:1033C00080010F20FFF7D7FA10BD10B50024864802
:1033D000006820F00F00844908600846006840F04B
:1033E0000800086004E0601CC4B20120FFF7C3FAC3
:1033F0007E488038006808B1C82CF4DBC82C01DB9B
:10340000012010BD002404E0601CC4B20120FFF7BD
:10341000B2FA76488038006808B9F02CF4DBF02C5A
:1034200001DB0120EDE70020EBE710B56E480068F6
:1034300020F00F006C4908600846006840F0030067
:1034400008600020694908600220FFF794FA012013
:103450006749C1F880016448006820F00F006249A4
:1034600008600846006840F0080008600C20FFF77C
:1034700082FA5E488038006808B1012400E0002428
:103480003220FFF778FA204610BD70B500260125DE
:1034900008E0FFF7CAFF0446E00140EA6600C6B252
:1034A000681CC5B2082DF4DD304670BD70B5044609
:1034B0004D48006820F00F004B490860084600683E
:1034C00040F003000860012520E004F001066410CC
:1034D0006EB10020454908600220FFF74CFA012038
:1034E0004349C1F880013C20FFF745FA0CE0002079
:1034F0003E4908603C20FFF73EFA01203C49C1F8F4
:1035000080010220FFF737FA681CC5B2082DDCDD08
:1035100070BD10B5FFF73EFFFFF757FFCC20FFF758
:10352000C5FF4420FFF7C2FF10BD08B501210420EC
:10353000FDF7EEFF0120ADF8000010208DF803002C
:1035400003208DF8020069462748FDF7BFFC0121E2
:103550002548FDF768FDFFF71DFFFFF736FF08BDA3
:103560002DE9F84FFFF7D5FFFFF714FFFFF72DFF09
:10357000CC20FFF79BFFBE20FFF798FFFFF785FFEA
:103580008346FFF782FF0446072C08DDE043C4B200
:103590006FEA0B0000F0FF0B4FF0000A01E04FF064
:1035A000010AA1464FEA09200FFA80F909EB0B0046
:1035B0000FFA80F9484603F085FA009003F056FAB6
:1035C000074600220B4B03F053F9054603F00EF9B2
:1035D0000FFA80F9BAF1000F02D04846BDE8F88F23
:1035E000C9F1000000B2F9E7000801408001214262
:1035F000000021420000E43F10B58CB004461E23B9
:103600000BAA03A9204601F023FC0090009810B1FA
:1036100001200CB010BD9DF82C00044400200B903C
:103620000EE044489DF82C2050F8221003A801F029
:1036300077FB00B908E09DF82C00401CC0B20B904D
:103640009DF82C000728ECD300BF9DF82C0007281C
:103650006CD2DFE800F004053C666E6D6C0000BFC4
:1036600035A001F0F3FD35A001F0F0FD43A001F01D
:10367000EDFD52A001F0EAFD60A001F0E7FD6FA0B2
:1036800001F0E4FD7DA001F0E1FD8AA001F0DEFD86
:103690008FA001F0DBFD94A001F0D8FD98A001F00F
:1036A000D5FD9DA001F0D2FDA2A001F0CFFDA8A004
:1036B00001F0CCFDB4A001F0C9FDC1A001F0C6FD30
:1036C000CCA001F0C3FDD8A001F0C0FDB3E24021C1
:1036D000E548FFF7EAF818A1E348FFF7FCFAE3A191
:1036E000E148FFF7F8FA00200B900FE0EF48006880
:1036F0009DF82C1000EBC100EDA14268DA48FFF7FD
:10370000EAFA9DF82C00401CC0B20B90E748007DFF
:103710009DF82C108842E9DC07A1D348FFF7DBFABB
:1037200089E24021D048FFF7C0F8C5E181E251E2CB
:1037300021E2F0E1380000200D0A00002D2D2D2D92
:103740002D2D2D2D2D2D2D2D2D2D2D2D2D2D2D2DA9
:103750002D2D2D2D55534D4152542056332E312DA4
:103760002D2D2D2D2D2D2D2D2D2D2D2D2D2D2D2D89
:103770002D2D2D2D2D2D2D200D0A00002020202057
:1037800055534D415254CAC7D3C9414C49454E5473
:10379000454BBFAAB7A2B5C4D2BBB8F6C1E9C7C9E9
:1037A000B5C4B4AEBFDAB5F7CAD4BBA5BDBBD7E9C3
:1037B000BCFE2CCDA8B9FD200D0A0000CBFC2CC40A
:1037C000E3BFC9D2D4CDA8B9FDB4AEBFDAD6FACA28
:1037D000D6B5F7D3C3B3CCD0F2C0EFC3E6B5C4C8F7
:1037E000CEBACEBAAFCAFD2CB2A2D6B4D0D02ED2A9
:1037F000F2B4CB2CC4E3BFC90D0A0000D2D4CBE68F
:10380000D2E2B8FCB8C4BAAFCAFDB5C4CAE4C8EBCA
:10381000B2CECAFD28D6A7B3D6CAFDD7D628313036
:103820002F3136BDF8D6C629A1A2D7D6B7FBB4AE84
:10383000A1A2BAAFCAFDC8EB0D0A0000BFDAB5D825
:10384000D6B7B5C8D7F7CEAAB2CECAFD292CB5A532
:10385000B8F6BAAFCAFDD7EEB6E0D6A7B3D63130C8
:10386000B8F6CAE4C8EBB2CECAFD2CB2A2D6A7B352
:10387000D6BAAFCAFDB7B5200D0A0000BBD8D6B581
:10388000CFD4CABE2ED0C2D4F6B2CECAFDCFD4CACF
:10389000BEBDF8D6C6C9E8D6C3B9A6C4DC2CD0C212
:1038A000D4F6BDF8D6C6D7AABBBBB9A6C4DC2E0DCC
:1038B0000A000000BCBCCAF5D6A7B3D63A77777722
:1038C0002E6F70656E6564762E636F6D0D0A000055
:1038D00055534D415254D3D037B8F6CFB5CDB3C3BD
:1038E000FCC1EE3A0D0A00003F3A202020202020A3
:1038F000BBF1C8A1B0EFD6FAD0C5CFA20D0A000027
:1039000068656C703A202020BBF1C8A1B0EFD6FAF0
:10391000D0C5CFA20D0A00006C6973743A20202034
:10392000BFC9D3C3B5C4BAAFCAFDC1D0B1ED0D0A8A
:103930000A00000069643A2020202020BFC9D3C3B8
:10394000BAAFCAFDB5C44944C1D0B1ED0D0A0A00F1
:103950006865783A20202020B2CECAFD3136BDF805
:10396000D6C6CFD4CABE2CBAF3B8FABFD5B8F12B9D
:10397000CAFDD7D6BCB4D6B4D0D0BDF8D6C6D7AA67
:10398000BBBB0D0A0A0000006465633A20202020BA
:10399000B2CECAFD3130BDF8D6C6CFD4CABE2CBA1D
:1039A000F3B8FABFD5B8F12BCAFDD7D6BCB4D6B49C
:1039B000D0D0BDF8D6C6D7AABBBB0D0A0A000000FE
:1039C00072756E74696D653A312CBFAAC6F4BAAFD0
:1039D000CAFDD4CBD0D0BCC6CAB13B302CB9D8B10B
:1039E000D5BAAFCAFDD4CBD0D0BCC6CAB13B0D0A44
:1039F0000A000000C7EBB0B4D5D5B3CCD0F2B1E02B
:103A0000D0B4B8F1CABDCAE4C8EBBAAFCAFDC3FBB3
:103A1000BCB0B2CECAFDB2A2D2D4BBD8B3B5BCFC46
:103A2000BDE1CAF82E0D0A002D2D2D2D2D2D2D2D89
:103A30002D2D2D2D2D2D2D2D2D2D2D2D2D2D2D2DB6
:103A40002D2D414C49454E54454B2D2D2D2D2D2DC1
:103A50002D2D2D2D2D2D2D2D2D2D2D2D2D2D2D2D96
:103A60002D2D2D200D0A0000004400402D2D2D2D60
:103A70002D2D2D2D2D2D2D2D2D2D2D2D2D2D2D2D76
:103A80002D2D2D2D2DBAAFCAFDC7E5B5A52D2D2D98
:103A90002D2D2D2D2D2D2D2D2D2D2D2D2D2D2D2D56
:103AA0002D2D2D2D2D2D2D2D200D0A00CC0000208B
:103AB00025730D0A00000000EBA1FB48FFF70BF98E
:103AC00000200B901BE0F94909689DF82C2001EBC0
:103AD000C20101AB02AA486803A901F0DFF9F3486B
:103AE00000689DF82C1050F8313003AAF0A1EE4880
:103AF000FFF7F1F89DF82C00401CC0B20B90EB488A
:103B0000007D9DF82C108842DDDCAFF2D431E64810
:103B1000FFF7E1F88FE0AFF2E031E348FFF7DBF8C1
:103B20000BAA03A9204601F095FA9DF82C00D8B9FC
:103B3000694603A801F027F90B909DF82C0028B9DD
:103B4000E0A1D948009AFFF7C6F80FE09DF82C00D5
:103B5000042801D002205CE5DDA1D348FFF7BBF8C3
:103B60000120D249C87501E0022052E5D7A1CE4814
:103B7000FFF7B1F85FE0D5A1CB48FFF7ACF80BAA8F
:103B800003A9204601F066FA9DF82C00D8B96946D1
:103B900003A801F0F8F80B909DF82C0028B9D1A1EA
:103BA000C148009AFFF797F80FE09DF82C00042811
:103BB00001D002202DE5CEA1BB48FFF78CF80020F4
:103BC000BA49C87501E0022023E5C0A1B648FFF755
:103BD00082F830E0BDA1B448FFF77DF80BAA03A935
:103BE000204601F037FA9DF82C00D8B9694603A8A1
:103BF00001F0C9F80B909DF82C0088B9AB490098EA
:103C000081F8EC00084690F8EC0020B1BDA1A64870
:103C1000FFF761F808E0C2A1A348FFF75CF803E0F2
:103C20000220F6E40220F4E4A8A19F48FFF753F82D
:103C300001E00120EDE400BF0020EAE410B501211D
:103C4000BE48FEF763FC4FF6FF71BC48FEF72EFC42
:103C50000021BA48FEF728FC00209449C1F8F00082
:103C600010BD10B50121B548FEF747FC012808D169
:103C70008E48D0F8F0004FF6FF7108448B49C1F828
:103C8000F000AE48FEF733FC8849D1F8F010084444
:103C90008649C1F8F0000846D0F8F00010BD10B514
:103CA0000121A648FEF735FC012807D10021A348D1
:103CB000FEF7FAFB6421A148FEF7F8FB01219F48BB
:103CC000FEF738FC10BD7FB504460D4601210420E7
:103CD000FDF72BFCADF800500020ADF80200ADF868
:103CE0000440ADF8060069469448FDF7EDFD012259
:103CF00011469248FEF75FF901219048FEF740F91E
:103D00001E208DF80C0003208DF80D008DF80E009C
:103D100001208DF80F0003A8FCF7ADFF7FBD10B5A3
:103D2000044604EBC40000EB04100122C2EB800047
:103D300081B24FF47A70FFF7C6FF01205B49C87566
:103D400010BD30B595B0054613AB12AA09A9284697
:103D500001F0A4F8044614B1204615B030BD00208F
:103D6000149026E0514909689DF8502001EBC201EA
:103D700013AB11AA486801A901F090F804460CB1F0
:103D80002046EAE709A901A800F0CAFF60B99DF83A
:103D900044009DF84810884201DD0220DDE79DF8CF
:103DA0005000424988750AE09DF85000401CC0B29E
:103DB00014903E48007D9DF850108842D2DC00BF30
:103DC0003A48007D9DF85010884201D10420C4E794
:103DD00014A9284601F0AFF904460CB12046BCE70F
:103DE0009DF85000314948750020B6E72DE9F041B3
:103DF0009AB02E48847D007DA04202DC1AB0BDE856
:103E0000F0812A49096801EBC40106AB07AA48689A
:103E100008A901F043F808A949A001F017FA002603
:103E2000B9E02248008B0121B1400840D8B12221DD
:103E300045A001F00BFA304601F070F91B4924311E
:103E40004718394641A001F001FA22213EA001F0B5
:103E5000FDF9304601F062F914492431084410A9F3
:103E600041F826008DE073E02D2D2D2D2D2D2D2DCB
:103E70002D2D2D2D2D2D2D2D2D2D2D2D2D2D2D2D72
:103E80002DBAAFCAFD204944202D2D2D2D2D2D2DCD
:103E90002D2D2D2D2D2D2D2D2D2D2D2D2D2D2D2D52
:103EA0002D2D2D2D200D0A0000440040CC000020B7
:103EB00025732069642069733A0D0A30582530381B
:103EC000780D0A004845583A305825580D0A000028
:103ED0003136BDF8D6C6B2CECAFDCFD4CABE210D8A
:103EE0000A0000004445433A256C750D0A000000A5
:103EF0003130BDF8D6C6B2CECAFDCFD4CABE210D70
:103F00000A00000052756E2054696D652043616C93
:103F100063756C6174696F6E204F4E0D0A0000006E
:103F200052756E2054696D652043616C63756C61D8
:103F300074696F6E204F46460D0A0000000800406D
:103F40000D0A25732800000025630000257300007A
:103F5000304601F0E3F8B649085810A941F82600A8
:103F6000B3482438C07D30B910A850F82610B1A04D
:103F700001F06CF905E010A850F82610AEA001F091
:103F800065F99DF81C00401EB04202D0ACA001F0C3
:103F90005DF9701CC6B29DF81C008642FFF641AF69
:103FA000A8A001F053F9FFF749FEA1482438407D4D
:103FB0000B280ED2DFE800F0060E17212B384758E9
:103FC0006B8097009A492439096851F8340080477A
:103FD0000546A1E0964A243A126852F83410109827
:103FE0008847054698E0924B243B1B6853F83420E1
:103FF000DDE91001904705468EE08D4F243F3F6874
:1040000057F8343010A807C89847054684E0DFF811
:1040100020C2ACF1240CDCF800C05CF8347010A8AD
:104020000FC8B847054677E01498DFF804C2ACF132
:10403000240C0090DCF800C05CF8347010A80FC8A5
:10404000B847054668E0DDE91401DFF8E4C1ACF1EA
:10405000240CCDE90001DCF800C05CF8347010A835
:104060000FC8B847054657E0DDE914121698DFF887
:10407000C0C1ACF1240CCDE900120290DCF800C004
:104080005CF8347010A80FC8B847054644E0DDE975
:104090001423DDE91610DFF898C1ACF1240CCDE94A
:1040A0000023CDE90210DCF800C05CF8347010A8E1
:1040B0000FC8B84705462FE0DDE91523DDE91710E5
:1040C000CDE90123CDE903101498DFF864C1ACF108
:1040D000240C0090DCF800C05CF8347010A80FC805
:1040E000B847054618E0DDE91623DDE91810CDE9EB
:1040F0000223CDE90410DDE91401DFF834C1ACF18D
:10410000240CCDE90001DCF800C05CF8347010A884
:104110000FC8B847054600BF00BFFFF7A2FD9DF8D6
:10412000180001280DD142482438C07D20B9294605
:1041300045A001F08BF807E0294645A001F086F87C
:1041400002E042A001F082F83948243890F8EC00EF
:1041500098B137482438D0F8F0000A21B0FBF1F2CA
:1041600001FB120732482438D0F8F000B0FBF1F818
:104170003A46414639A001F069F800BF3EE670B505
:104180003E48008800F4004000284AD03B480578AB
:1041900000203B49485526482438816838488847DC
:1041A000044624B922492439C868804736E0344897
:1041B000FFF722FA0546012D00D02C46002C2DD009
:1041C000012C06D0022C0DD0032C14D0042C24D1A9
:1041D0001AE040212B48FEF768FB2BA12948FEF787
:1041E0007AFD1AE040212748FEF75FFB29A1254808
:1041F000FEF771FD11E040212248FEF756FB28A191
:104200002048FEF768FD08E040211E48FEF74DFB00
:1042100026A11C48FEF75FFD00BF00BF0020174924
:10422000088070BD01460868704701607047000053
:10423000F0000020256C7500305825580000000063
:104240002C000000290000003D256C753B0D0A0084
:104250003D305825583B0D0A0000000046756E633E
:1042600074696F6E2052756E2054696D653A2564CD
:104270002E2531646D730D0A00000000320000200D
:104280008802002000440040BAAFCAFDB4EDCEF36E
:10429000210D0A00B2CECAFDB4EDCEF3210D0A0005
:1042A000B2CECAFDCCABB6E0210D0A00CEB4D5D259
:1042B000B5BDC6A5C5E4B5C4BAAFCAFD210D0A0097
:1042C00070B504460D46092C06D00A2C09D0102CD6
:1042D0000CD0112C14D10EE02946FE48FEF7ECF864
:1042E0000EE02946FB48FEF7E9F809E02946FA48BE
:1042F000FEF7E2F804E02946F748FEF7DFF800BFD2
:1043000000BF70BD30B589B005460C46A5F1090067
:10431000092863D2DFE800F00563C1D9F6F4F3F2AF
:10432000F100032C43D101210220FDF7FEF8012109
:104330000820FDF7EDF80120ADF8200018208DF8D9
:10434000230003208DF8220008A9E448FCF7BEFDF5
:104350004720ADF818000A20ADF814000020ADF891
:104360001A00ADF8160005A9DA48FDF7ADFA70207D
:10437000ADF804000120ADF806000020ADF80A00F9
:10438000ADF80C0001A9D348FDF76AFB0121D14823
:10439000FDF702FE0821CF48FDF738FF0121CD4887
:1043A000FDF7EEFE0121CB48FDF7EAFD16E0012CFA
:1043B00014D101210820FDF7ABF80120ADF8200051
:1043C00010208DF8230003208DF8220008A9C3488F
:1043D000FCF77CFD0121C148FCF725FEA3E1032C7D
:1043E00043D101210220FDF7A0F801210820FDF7AB
:1043F0008FF80220ADF8200018208DF8230003204C
:104400008DF8220008A9B548FCF760FD4720ADF8FB
:1044100018000A20ADF814000020ADF81A00ADF81D
:10442000160005A9AB48FDF74FFA7020ADF804005F
:104430000120ADF806000020ADF80A00ADF80C0030
:1044400001A9A448FDF757FB0121A248FDF7A4FDEF
:104450000821A048FDF7E3FE01219E48FDF790FEEC
:1044600001219C48FDF78CFD16E0012C14D101219F
:104470000820FDF74DF80220ADF8200010208DF83F
:10448000230003208DF8220008A99448FCF71EFDA4
:1044900002219248FCF7C7FD45E1012C14D101210E
:1044A0001020FDF735F82003ADF8200010208DF81E
:1044B000230003208DF8220008A98948FCF706FD97
:1044C00021038748FCF7AFFD2DE1012C14D1012118
:1044D0002020FDF71DF80420ADF8200010208DF8F5
:1044E000230003208DF8220008A97E48FCF7EEFC8B
:1044F00004217B48FCF797FD15E1A9E049E030E095
:1045000018E0FFE7012C14D101210820FDF700F885
:104510000820ADF8200010208DF8230003208DF82E
:10452000220008A96D48FCF7D1FC08216B48FCF774
:104530007AFDF8E0012C13D101210820FCF7E8FFF7
:104540001020ADF820008DF8230003208DF8220004
:1045500008A96248FCF7BAFC10216048FCF763FD2B
:10456000E1E0012C14D101210820FCF7D1FF20202B
:10457000ADF8200010208DF8230003208DF82200D4
:1045800008A95648FCF7A2FC20215448FCF74BFD33
:10459000C9E0032C44D101210420FCF7C6FF01210E
:1045A0000820FCF7B5FF4FF48070ADF8200018200C
:1045B0008DF8230003208DF8220008A94748FCF756
:1045C00085FC4720ADF818000A20ADF81400002043
:1045D000ADF81A00ADF8160005A93F48FDF774F9CB
:1045E0007020ADF804000120ADF806000020ADF801
:1045F0000A00ADF80C0001A93748FDF731FA012196
:104600003548FDF7C9FC08213348FDF7FFFD0121BE
:104610003148FDF7B5FD01212F48FDF7B1FC16E04B
:10462000012C14D101210820FCF772FF2002ADF803
:10463000200010208DF8230003208DF8220008A907
:104640002648FCF743FC21022448FCF7ECFC6AE016
:10465000032C50D101210420FCF767FF0121082021
:10466000FCF756FF4FF40070ADF8200018208DF8CD
:10467000230003208DF8220008A91848FCF726FC27
:104680004720ADF818000A20ADF814000020ADF85E
:104690001A00ADF8160005A90F48FDF715F97020AE
:1046A000ADF804000120ADF806000020ADF80A00C6
:1046B000ADF80C0001A90848FDF71DFA01210648D4
:1046C000FDF76AFC08210448FDF7A9FD0121024815
:1046D0000AE000000004004000080040000C014017
:1046E0000010014000140140FDF74AFD0121F4488B
:1046F000FDF746FC16E0012C14D101210820FCF73F
:1047000007FF6002ADF8200010208DF82300032081
:104710008DF8220008A9EB48FCF7D8FB6102E948B4
:10472000FCF781FC00BF00BF002009B030BD2DE9BF
:10473000F04F87B00121E348FCF768FC8246022174
:10474000E048FCF763FC83464FF48051DE48FCF7F9
:104750005DFC04460421DD48FCF758FC05460821B1
:10476000D848FCF753FC06901021D648FCF74EFCC5
:1047700006462021D348FCF749FC07464FF48071D8
:10478000D048FCF743FC80464FF40071CD48FCF75D
:104790003DFC81465B465246CDA1D3488DE8F003EF
:1047A000FEF799FA002007B0BDE8F08F10B5044677
:1047B000A4F10900092870D2DFE800F005142333C2
:1047C0004251607080000121BE48FCF71FFC20B1FF
:1047D000C6A1C548FEF77FFA03E0C7A1C248FEF7AD
:1047E0007AFA7CE00221B748FCF710FC20B1C5A1A1
:1047F000BD48FEF770FA03E0C6A1BB48FEF76BFAAE
:104800006DE04FF48051B048FCF700FC20B1C5A129
:10481000B548FEF760FA03E0C6A1B348FEF75BFABD
:104820005DE00421A948FCF7F1FB20B1C5A1AE4829
:10483000FEF751FA03E0C7A1AB48FEF74CFA4EE091
:104840000821A048FCF7E2FB20B1C6A1A648FEF76C
:1048500042FA03E0C7A1A448FEF73DFA3FE0102169
:104860009848FCF7D3FB20B1C6A19F48FEF733FA66
:1048700003E0C8A19C48FEF72EFA30E020219148C1
:10488000FCF7C4FB20B1C7A19748FEF724FA03E068
:10489000C8A19548FEF71FFA21E01FE04FF4807190
:1048A0008848FCF7B3FB20B1C6A18F48FEF713FA86
:1048B00003E0C8A18C48FEF70EFA10E04FF4007137
:1048C0008048FCF7A3FB20B1C6A18748FEF703FA96
:1048D00003E0C8A18448FEF7FEF900E000BF00BF76
:1048E000002010BD70B505460C46A5F10900092849
:1048F00070D2DFE800F005101B28333E49546100F8
:1049000024B101216F48FCF78EFB03E001216D48C3
:10491000FCF78BFB5FE024B102216A48FCF783FBC4
:1049200003E002216748FCF780FB54E02CB14FF410
:1049300080516548FCF777FB04E04FF480516248F2
:10494000FCF773FB47E024B104216048FCF76BFBE4
:1049500003E004215D48FCF768FB3CE024B108213A
:104960005848FCF760FB03E008215648FCF75DFB64
:1049700031E024B110215348FCF755FB03E010212E
:104980005048FCF752FB26E024B120214D48FCF7AB
:104990004AFB03E020214B48FCF747FB1BE02CB10E
:1049A0004FF480714748FCF73EFB04E04FF4807100
:1049B0004448FCF73AFB0EE02CB14FF4007141483B
:1049C000FCF731FB04E04FF400713E48FCF72DFB8F
:1049D00001E0FFE700BF00BF70BD10B50446002C2A
:1049E00005DD4FF480518748FCF71FFB05E024B933
:1049F0004FF480518348FCF716FB10BD70B5054697
:104A00000C462046A84770BD2DE9F0410746FEF749
:104A10008CFD05462DB17CA13348FEF75CF9BDE85D
:104A2000F081FEF79DFD0446002C06DA82A12E4897
:104A3000FEF751F9604204B207E00A2094FBF0F659
:104A400032467EA12848FEF746F97DA12648FEF7AA
:104A500042F90A2094FBF0F100FB1146324620A1F6
:104A60002148FEF738F900BFD9E738B50546754843
:104A70008078A04223D073488478C0790090714830
:104A80008379828870A11848FEF725F96D48007A6D
:104A9000072809D2DFE800F004090EFCFAF9F80053
:104AA00070A11148FEF717F906E171A10E48FEF753
:104AB00012F901E171A10C48FEF70DF9FCE006E1E5
:104AC00000080040000C01400010014000140140AB
:104AD000256425642564256425642564256425648E
:104AE00025640D0A00000000004400404750494F73
:104AF0005F393A20310D0A004750494F5F393A205B
:104B0000300D0A004750494F5F31303A20310D0ACD
:104B1000000000004750494F5F31303A20300D0A05
:104B2000000000004750494F5F31313A20310D0AF3
:104B3000000000004750494F5F31313A20300D0AE4
:104B4000000000004750494F5F31323A20310D0AD2
:104B5000000000004750494F5F31323A20300D0AC3
:104B6000000000004750494F5F31333A20310D0AB1
:104B7000000000004750494F5F31333A20300D0AA2
:104B8000000000004750494F5F31343A20310D0A90
:104B9000000000004750494F5F31343A20300D0A81
:104BA000000000004750494F5F31353A20310D0A6F
:104BB000000000004750494F5F31353A20300D0A60
:104BC000000000004750494F5F31363A20310D0A4E
:104BD000000000004750494F5F31363A20300D0A3F
:104BE000000000004750494F5F31373A20310D0A2D
:104BF000000000004750494F5F31373A20300D0A1E
:104C00000000000000080140445331384232302097
:104C10006E6F7420666F756E642C706C6561736561
:104C200020636865636B20746865206861726477CF
:104C3000617265210D0A00002D000000256400004E
:104C40002E00000050030020256420796561722049
:104C50002564206D6F6E746820256420646174651E
:104C60002020000053756E64617920200000000050
:104C70004D6F6E64617920200000000054756573EB
:104C8000646179202000000011E00BE005E0FFE7FF
:104C90000FA11248FEF71FF80EE011A10F48FEF712
:104CA0001AF809E011A10D48FEF715F804E012A169
:104CB0000A48FEF710F800BF00BF12488078009045
:104CC00010484378027810A10448FEF704F838BD74
:104CD0005765646E6573646179202000004400406C
:104CE00054687572736461792020000046726964AB
:104CF000617920200000000053617475726461794D
:104D00002020000050030020256420686F75722069
:104D10002564206D696E202564207365630D0A008B
:104D200002460AE010780B78984201D001207047C3
:104D3000107800B902E0521C491CF3E700BF0020C4
:104D4000F5E706E002780A70027802B902E0401C3A
:104D5000491CF7E700BF70470146002005E00A78CC
:104D600002B903E0421CD0B2491CF8E700BF70470B
:104D700010B50246012000E050430B1EA1F10104D2
:104D8000E1B2F9D110BD2DE9F04307460E460025EA
:104D90004FF00A083C46002030601FE02078392898
:104DA00002DC207830280ADA2078462802DC2078D5
:104DB000412804DA2078582809D1012D07D120781C
:104DC000412801DB4FF01008681CC5B205E02078CF
:104DD00000B904E00120BDE8F083641CDEE700BFF9
:104DE0003C46B8F1100F0FD1032D01DA0220F2E793
:104DF0002078302806D16078582803D1A41CA81E3A
:104E0000C5B204E00320E6E70DB90420E3E71BE0A8
:104E10000DB1681EC5B22078392806DC207830280C
:104E200003DB2078A0F1300902E02078A0F13709F7
:104E300029464046FFF79CFF316809FB00103060AF
:104E4000641C207800B900E0E2E700BF0020C2E760
:104E500010B50446002010700BE020780870641C28
:104E6000491C1078401C10701078984201DB01201A
:104E700010BD2078202802D020780028EDD1002015
:104E8000087000BFF4E70146491C00E0491C08789F
:104E9000202801D10029F9D1087870472DE9FF4F6A
:104EA00085B08046894600270020049003900120A9
:104EB00002904FF0000B002544461DE0207820288A
:104EC00016D005F07F00052812DA0DB945F08005EF
:104ED00005F07F00042803D120782A2800D00EE0B6
:104EE000207805F07F010DF80100681CC5B202E0D2
:104EF000852D00D103E0641C20780028DED100BF9E
:104F00008DB1002005F07F010DF80100CBA16846AE
:104F1000FFF706FF18B900210898017002E001218F
:104F20000898017000254FF0000A444614E0641C04
:104F30000AF1010000F0FF0A2078202802D0207832
:104F40002A2809D12046FFF79EFF0646282E03D0C7
:104F50002A2E01D0CDF810A02078282802D0207861
:104F60000028E4D14446049810B10498401C04443D
:104F70004FF0000A002654E0207810B94FF0010AE3
:104F800050E02078282803D116B9781CC7B213E066
:104F90002078292808D13EB917B1781EC7B201E0A0
:104FA0004FF0010A47B93DE02078222804D10EB91C
:104FB000012000E00020064647B9207820282FD0A5
:104FC000207889F8000009F1010929E020782C28CF
:104FD00004D101200290681CC5B214E0207820287A
:104FE00011D0207828280ED04DB9BBF1050F06DA74
:104FF00020780DF80B000BF1010000F0FF0B029878
:10500000401CC0B20290012F0AD10298022807D199
:105010000298401CC0B202900398401CC0B203909A
:10502000641CA9E700BF0398012809D100200DF8EE
:105030000B0082A16846FFF773FE08B900200390B9
:10504000079903980870002089F80000504609B0BD
:10505000BDE8F08FF0B5034615460020002200267B
:10506000002455E01F782C2F01D104B901221F78AC
:10507000292F01D01F780FB904B94AE0002E34D18E
:105080001F78302F02DB1F78392F11DD1F78612F39
:1050900002DB1F78662F0BDD1F78412F02DB1F78A4
:1050A000462F05DD1F78582F02D01F78782F0CD19E
:1050B00002B12EE01F78612F03DB1F78203F0F70B5
:1050C00001E01F780F70491C1FE01F78222F04D1C8
:1050D00002B11EE00126012417E01F78202F14D012
:1050E0001F782C2F11D0FF2613E01F78222F00D11C
:1050F000002402B10DE044B11F785C2F02D15B1C8B
:10510000471CF8B21F780F70491C471CF8B25B1C93
:10511000A8E700BF00270F702E70F0BD02460020E8
:10512000002105E0474B5B5C0344D8B24B1CD9B26D
:105130009142F7DB70472DE9F043B5B005460F46C5
:105140000024002604E000213E488155701CC6B2B0
:105150000A2EF8DB06E06D1C287818B9012035B05E
:10516000BDE8F08328782828F5D16D1C61E034AAC9
:1051700069462846FFF76EFF064635449DF8D00085
:1051800020B1012827D0FF284CD149E09DF800002C
:1051900000B333A96846FFF7F6FD06460EB10220BC
:1051A000DDE72046FFF7BAFF26490A31339A0A5055
:1051B000A1F12400008B0121A140884321491A3923
:1051C000088304211F480155601CC4B20A2C01DD6C
:1051D0000320C4E726E06846FFF7BEFD401C00F050
:1051E000FF082046FFF79AFF16490A3100EB010934
:1051F00049466846FFF7A5FD12481A38018B012081
:10520000A040014388B20F491A3908830D4800F8BD
:105210000480601CC4B20A2C01DD03209FE701E07A
:1052200002209CE700BF2878292801D0287800B9FF
:1052300000E09CE700BF3C70002090E7766F696457
:1052400000000000E6000020704700000FB4044991
:1052500010B503AA029800F0EDFB10BC5DF814FB3A
:105260002C00002070B5044685690068C10601D590
:10527000302600E02026C00707D070BDD4E9012108
:1052800030469047206A401C20626D1EF6D570BDE6
:1052900070B5044685690078C00707D170BDD4E9B0
:1052A000012120209047206A401C20626D1EF6D507
:1052B00070BD70B50C460546012A05D028788006D9
:1052C00000D5EA69002302E0012305E05B1C93425C
:1052D00002D2E05C0028F9D1A869E618C01AA861DA
:1052E000286A184428622846FFF7BCFF04E0D5E985
:1052F000012114F8010B9047B442F8D32846FFF778
:10530000C7FF70BD2DE9F0410646002410687529DD
:10531000314616A510D0AFF30080002802DA4042D3
:1053200013A507E031688A0701D512A502E04907F5
:1053300004D511A5012401E0AFF3008000210A2269
:1053400006F1240709E0B0FBF2FCB0FBF2F302FB2C
:105350001C00303078541846491C0028F3D12346ED
:105360002A463046BDE8F04100F0E8B800000000F1
:105370002D0000002B0000002000000070B5044646
:105380000D4621461068AFF300802188090502D53B
:105390000F4A7A4402E00E4A7A440E32002104F1A8
:1053A000240305E000F00F060009965D5E54491CD9
:1053B0000028F7D120780023000704D5702D02D0F3
:1053C00009B1022311322046BDE8704000F0B6B8A2
:1053D000061800002DE9F0474FF0000A8946044600
:1053E000C0F820A02046E1688847002876D025280C
:1053F00006D0D4E901219047206A401C2062F1E7E1
:10540000E168204600268847C4F81CA0054600270E
:10541000C4F818A02A2D09D0284601F072F838B334
:1054200004EB8708303DC8F8185019E059F8041B00
:10543000204604EB87029161E1688847012F054609
:1054400018D1E069002820DA26F020061DE0D8F8FF
:10545000180000EB800005EB40003038C8F8180059
:105460002046E1688847054601F04BF80028EED158
:10547000012F0AD02E2D08D12046E16888477F1CD5
:105480000546022F46F02006C4DBA069002803DA97
:10549000404246F00106A061F00701D026F0100658
:1054A0006C2D0AD0682D08D04C2D39D06A2D35D0FE
:1054B000742D35D07A2D33D016E0E1682F46204682
:1054C0008847B84205460AD16C2F27D04FF4806038
:1054D000E168064320468847054605E027E06C2F33
:1054E0001AD04FF4807006430DB3A5F1410019287E
:1054F00002D8203546F400664A46294620462660F2
:105500004E46FAF76FFE80B101280BD0F61D26F04B
:10551000070000F1080965E74020E4E78020D7E7AD
:105520000020D5E706F104095CE7284661E7206A18
:10553000BDE8F08770477047704770472DE9F04726
:105540000D4699469246044600F1240801688806F3
:1055500004D5E06921F01001216000E00120A8429B
:1055600001DD471B00E00027A1697A1902EB090061
:10557000081AA0612078C00602D42046FFF772FE08
:10558000002608E0D4E901211AF806009047206AB5
:10559000401C761C20624E45F4DB2078C0060AD5FC
:1055A0002046FFF75FFE06E0D4E901213020904756
:1055B000206A401C2062381EA7F10107F4DC07E0D6
:1055C000D4E9012118F805009047206A401C2062A8
:1055D000281EA5F10105F3DC2046FFF759FE2078CF
:1055E000000602D50220BDE8F0870120FBE77047E6
:1055F0002DE9FF4F0C461E464FF0FF378BB0D2E926
:105600000001DDF860800A908A46C1F30A5505B9A9
:105610003D46002108464FF00000BAF1000F00F4AB
:10562000400005DA00EB80004FF4400101EA500031
:105630004FEA9059B9F1010F00DDB9460A9850EAD6
:105640004A000ED044F61050A5F2FF3545432F1402
:10565000B8F1000F1ED07542291E1EDDC9F10002EF
:105660001CE0B8F1010F4FF0000001D0302103E041
:10567000F24305E02154401CB042FBDB30460022DF
:10568000002121540B99C1F80880C1E900200FB016
:10569000BDE8F08FBD1B6D1CDEE74A4600DA6942AB
:1056A00006A800F07BFA06AB93E8070003AB83E89B
:1056B000070050460A9900F055FB8DE80700A0F559
:1056C00000501F3800900398002D09DD42F21F01A1
:1056D0004A46084403A90390684600F0B4FD08E078
:1056E000A0F500504A461F3803A90390684600F011
:1056F000BEFD8DE807000004000C03D04FF0FF3022
:10570000410800E01046B8F1000F03D000220092DB
:1057100015461EE0751E05D400F0A2F93032625520
:105720006D1EF9D5B3460122084302D000227F1C2A
:1057300004E02078302801D100227F1E002A09973A
:1057400086D01DE0112D07DA00F08AF9303262555B
:105750006D1C50EA0102F5D1084302D00098C8B18F
:105760000EE00021681E05E0235C625C6354225455
:10577000401E491C8142F7DBAB46A81B401E099026
:10578000002004F80B000B98099AC0F80880C0E9C3
:10579000002B7CE711264FF0000859E72DE9F04F68
:1057A00088460446D21D22F0070191B0D1E90001DC
:1057B000CDE90A0100F091FE02460B98C00F01D01E
:1057C0002D2007E02068810701D52B2002E0202151
:1057D00001EAC000032A099001D0072A05DB03462D
:1057E0004146204600F09AF90BE12078800601D569
:1057F000E06900E00620B8F1650F814606D0B8F1F7
:10580000660F18D0B8F1670F70D131E00020B9F100
:10581000110F009001DB112301E009F101030AAA35
:1058200001A90CA8FFF7E4FEDDE90C70002609F1E0
:105830000105834647E001204B4600904FF00047AA
:105840000AAA01A90CA8FFF7D3FEDDE90DB00C9957
:105850005D46002610B909F101000D18B9EB0500ED
:1058600003D4C0F1FF3609F10105A5EB09002BE0D7
:10587000B9F1010F01DA4FF001090020B9F1110F60
:105880000090484601DD112300E003460AAA01A961
:105890000CA8FFF7ADFEDDE90C704D4600268346EF
:1058A000207800070AD4AB4500DA5D4601A8012D37
:1058B00004DD411911F8011C302907D04F4502DAE7
:1058C00017F1040F04DA012082460FE06D1EEEE7A7
:1058D000002F02DCED1B3E4403E0781CA84200DDF3
:1058E0007D1CB81B00F1010A4FF00047207800072B
:1058F00003D4AA4501DB4FF0FF3A0021B7F1004F76
:105900000DF143088DF8431024D002202B23002FE3
:1059100001DA7F422D230A21021EA0F1010000DCE2
:105920005FB197FBF1FC97FBF1F201FB1C7C174682
:105930000CF1300C08F801CDEEE7A8F1010003707E
:105940002188090501D5452100E06521A0F1010864
:1059500000F8011C09980FA9A1EB0807FF1D00B171
:105960000120411901EBEA70A1693844081A401E70
:10597000A0612078C00602D42046FFF773FC099886
:1059800028B1D4E901219047206A401C2062207888
:10599000C00622D52046FFF765FC1EE0002E04DB82
:1059A000B34502DD01A8805D00E03020D4E901218B
:1059B0009047206A401C2062761CAAF101005FEA31
:1059C000000A0AD100F048F8C0680168405CD4E9D8
:1059D00001219047206A401C2062281EA5F1010584
:1059E000DCDC07E0D4E9012118F8010B9047206ABC
:1059F000401C2062381EA7F10107F3DC2046FFF7A8
:105A000047FC032011B043E610B5436913B1AFF36F
:105A1000008001E0FFF74DFC012010BD127800F17D
:105A200024010A7000224A700122EDE711684FF04C
:105A3000FF32E9E7074B70B50D467B4400F05BF899
:105A40000446284600F018F910B14FF0FF3070BD41
:105A5000204670BDEDCFFFFF004870477C0300205B
:105A600030B5B0F10A024FEA900E71F100034EEA30
:105A7000817EB0EB0E0061EB91014FEA101E4EEA01
:105A8000017E10EB0E0041EB11114FEA102E4EEA91
:105A9000016E10EB0E0041EB11214FEA104E4EEA61
:105AA000014E10EB0E0041EB1141401841F1000195
:105AB0004FEAD00040EA41704FEAD10110EB800577
:105AC0004FEA810444EA907444EB01046D1944EBFD
:105AD0000404521BA3414FF0000348BF0A3200D513
